{
  "address": "0xe7f1725E7734CE288F8367e1Bb143E90bb3F0512",
  "abi": [
    {
      "inputs": [
        {
          "internalType": "address",
          "name": "_pricefeed",
          "type": "address"
        }
      ],
      "stateMutability": "nonpayable",
      "type": "constructor"
    },
    {
      "inputs": [],
      "name": "FundMe__NotOwner",
      "type": "error"
    },
    {
      "stateMutability": "payable",
      "type": "fallback"
    },
    {
      "inputs": [],
      "name": "MINIMUM_USD",
      "outputs": [
        {
          "internalType": "uint256",
          "name": "",
          "type": "uint256"
        }
      ],
      "stateMutability": "view",
      "type": "function"
    },
    {
      "inputs": [
        {
          "internalType": "address",
          "name": "",
          "type": "address"
        }
      ],
      "name": "addressToAmountFunded",
      "outputs": [
        {
          "internalType": "uint256",
          "name": "",
          "type": "uint256"
        }
      ],
      "stateMutability": "view",
      "type": "function"
    },
    {
      "inputs": [],
      "name": "fund",
      "outputs": [],
      "stateMutability": "payable",
      "type": "function"
    },
    {
      "inputs": [
        {
          "internalType": "uint256",
          "name": "",
          "type": "uint256"
        }
      ],
      "name": "funders",
      "outputs": [
        {
          "internalType": "address",
          "name": "",
          "type": "address"
        }
      ],
      "stateMutability": "view",
      "type": "function"
    },
    {
      "inputs": [],
      "name": "getVersion",
      "outputs": [
        {
          "internalType": "uint256",
          "name": "",
          "type": "uint256"
        }
      ],
      "stateMutability": "view",
      "type": "function"
    },
    {
      "inputs": [],
      "name": "i_owner",
      "outputs": [
        {
          "internalType": "address",
          "name": "",
          "type": "address"
        }
      ],
      "stateMutability": "view",
      "type": "function"
    },
    {
      "inputs": [],
      "name": "pricefeed",
      "outputs": [
        {
          "internalType": "contract AggregatorV3Interface",
          "name": "",
          "type": "address"
        }
      ],
      "stateMutability": "view",
      "type": "function"
    },
    {
      "inputs": [],
      "name": "withdraw",
      "outputs": [],
      "stateMutability": "payable",
      "type": "function"
    },
    {
      "stateMutability": "payable",
      "type": "receive"
    }
  ],
  "transactionHash": "0xc8320d43ccbdc2373021f518e4778c75bfaee5275a3322bc6b00fc7c5adb8d02",
  "args": [
    "0x5FbDB2315678afecb367f032d93F642f64180aa3"
  ],
  "numDeployments": 1,
  "solcInputHash": "7029ded327770f64b41b8725c5b317d6",
  "bytecode": "0x60806040523480156200001157600080fd5b50604051620010ec380380620010ec83398181016040528101906200003791906200012a565b33600260006101000a81548173ffffffffffffffffffffffffffffffffffffffff021916908373ffffffffffffffffffffffffffffffffffffffff16021790555080600360006101000a81548173ffffffffffffffffffffffffffffffffffffffff021916908373ffffffffffffffffffffffffffffffffffffffff160217905550506200015c565b600080fd5b600073ffffffffffffffffffffffffffffffffffffffff82169050919050565b6000620000f282620000c5565b9050919050565b6200010481620000e5565b81146200011057600080fd5b50565b6000815190506200012481620000f9565b92915050565b600060208284031215620001435762000142620000c0565b5b6000620001538482850162000113565b91505092915050565b610f80806200016c6000396000f3fe60806040526004361061007f5760003560e01c80636b69a5921161004e5780636b69a59214610135578063b60d428814610160578063dba6335f1461016a578063dc0d3dff146101955761008e565b80630d8e6e2c146100985780633ccfd60b146100c35780633e47d6f3146100cd578063590f21131461010a5761008e565b3661008e5761008c6101d2565b005b6100966101d2565b005b3480156100a457600080fd5b506100ad61030c565b6040516100ba9190610841565b60405180910390f35b6100cb6103b3565b005b3480156100d957600080fd5b506100f460048036038101906100ef91906108bf565b6105f5565b6040516101019190610841565b60405180910390f35b34801561011657600080fd5b5061011f61060d565b60405161012c919061094b565b60405180910390f35b34801561014157600080fd5b5061014a610633565b6040516101579190610841565b60405180910390f35b6101686101d2565b005b34801561017657600080fd5b5061017f610640565b60405161018c9190610975565b60405180910390f35b3480156101a157600080fd5b506101bc60048036038101906101b791906109bc565b610666565b6040516101c99190610975565b60405180910390f35b6802b5e3af16b1880000610211600360009054906101000a900473ffffffffffffffffffffffffffffffffffffffff16346106a590919063ffffffff16565b1015610252576040517f08c379a000000000000000000000000000000000000000000000000000000000815260040161024990610a46565b60405180910390fd5b346000803373ffffffffffffffffffffffffffffffffffffffff1673ffffffffffffffffffffffffffffffffffffffff16815260200190815260200160002060008282546102a09190610a95565b925050819055506001339080600181540180825580915050600190039060005260206000200160009091909190916101000a81548173ffffffffffffffffffffffffffffffffffffffff021916908373ffffffffffffffffffffffffffffffffffffffff160217905550565b6000600360009054906101000a900473ffffffffffffffffffffffffffffffffffffffff1673ffffffffffffffffffffffffffffffffffffffff166354fd4d506040518163ffffffff1660e01b815260040160206040518083038186803b15801561037657600080fd5b505afa15801561038a573d6000803e3d6000fd5b505050506040513d601f19601f820116820180604052508101906103ae9190610b00565b905090565b600260009054906101000a900473ffffffffffffffffffffffffffffffffffffffff1673ffffffffffffffffffffffffffffffffffffffff163373ffffffffffffffffffffffffffffffffffffffff161461043a576040517f579610db00000000000000000000000000000000000000000000000000000000815260040160405180910390fd5b60005b6001805490508110156104e5576000600182815481106104605761045f610b2d565b5b9060005260206000200160009054906101000a900473ffffffffffffffffffffffffffffffffffffffff16905060008060008373ffffffffffffffffffffffffffffffffffffffff1673ffffffffffffffffffffffffffffffffffffffff168152602001908152602001600020819055505080806104dd90610b5c565b91505061043d565b50600067ffffffffffffffff81111561050157610500610ba5565b5b60405190808252806020026020018201604052801561052f5781602001602082028036833780820191505090505b5060019080519060200190610545929190610781565b5060003373ffffffffffffffffffffffffffffffffffffffff164760405161056c90610c05565b60006040518083038185875af1925050503d80600081146105a9576040519150601f19603f3d011682016040523d82523d6000602084013e6105ae565b606091505b50509050806105f2576040517f08c379a00000000000000000000000000000000000000000000000000000000081526004016105e990610c66565b60405180910390fd5b50565b60006020528060005260406000206000915090505481565b600360009054906101000a900473ffffffffffffffffffffffffffffffffffffffff1681565b6802b5e3af16b188000081565b600260009054906101000a900473ffffffffffffffffffffffffffffffffffffffff1681565b6001818154811061067657600080fd5b906000526020600020016000915054906101000a900473ffffffffffffffffffffffffffffffffffffffff1681565b6000806106b1836106e1565b90506000670de0b6b3a764000085836106ca9190610c86565b6106d49190610d0f565b9050809250505092915050565b6000808273ffffffffffffffffffffffffffffffffffffffff1663feaf968c6040518163ffffffff1660e01b815260040160a06040518083038186803b15801561072a57600080fd5b505afa15801561073e573d6000803e3d6000fd5b505050506040513d601f19601f820116820180604052508101906107629190610db8565b5050509150506402540be400816107799190610e33565b915050919050565b8280548282559060005260206000209081019282156107fa579160200282015b828111156107f95782518260006101000a81548173ffffffffffffffffffffffffffffffffffffffff021916908373ffffffffffffffffffffffffffffffffffffffff160217905550916020019190600101906107a1565b5b509050610807919061080b565b5090565b5b8082111561082457600081600090555060010161080c565b5090565b6000819050919050565b61083b81610828565b82525050565b60006020820190506108566000830184610832565b92915050565b600080fd5b600073ffffffffffffffffffffffffffffffffffffffff82169050919050565b600061088c82610861565b9050919050565b61089c81610881565b81146108a757600080fd5b50565b6000813590506108b981610893565b92915050565b6000602082840312156108d5576108d461085c565b5b60006108e3848285016108aa565b91505092915050565b6000819050919050565b600061091161090c61090784610861565b6108ec565b610861565b9050919050565b6000610923826108f6565b9050919050565b600061093582610918565b9050919050565b6109458161092a565b82525050565b6000602082019050610960600083018461093c565b92915050565b61096f81610881565b82525050565b600060208201905061098a6000830184610966565b92915050565b61099981610828565b81146109a457600080fd5b50565b6000813590506109b681610990565b92915050565b6000602082840312156109d2576109d161085c565b5b60006109e0848285016109a7565b91505092915050565b600082825260208201905092915050565b7f596f75206e65656420746f207370656e64206d6f726520455448210000000000600082015250565b6000610a30601b836109e9565b9150610a3b826109fa565b602082019050919050565b60006020820190508181036000830152610a5f81610a23565b9050919050565b7f4e487b7100000000000000000000000000000000000000000000000000000000600052601160045260246000fd5b6000610aa082610828565b9150610aab83610828565b9250827fffffffffffffffffffffffffffffffffffffffffffffffffffffffffffffffff03821115610ae057610adf610a66565b5b828201905092915050565b600081519050610afa81610990565b92915050565b600060208284031215610b1657610b1561085c565b5b6000610b2484828501610aeb565b91505092915050565b7f4e487b7100000000000000000000000000000000000000000000000000000000600052603260045260246000fd5b6000610b6782610828565b91507fffffffffffffffffffffffffffffffffffffffffffffffffffffffffffffffff821415610b9a57610b99610a66565b5b600182019050919050565b7f4e487b7100000000000000000000000000000000000000000000000000000000600052604160045260246000fd5b600081905092915050565b50565b6000610bef600083610bd4565b9150610bfa82610bdf565b600082019050919050565b6000610c1082610be2565b9150819050919050565b7f43616c6c206661696c6564000000000000000000000000000000000000000000600082015250565b6000610c50600b836109e9565b9150610c5b82610c1a565b602082019050919050565b60006020820190508181036000830152610c7f81610c43565b9050919050565b6000610c9182610828565b9150610c9c83610828565b9250817fffffffffffffffffffffffffffffffffffffffffffffffffffffffffffffffff0483118215151615610cd557610cd4610a66565b5b828202905092915050565b7f4e487b7100000000000000000000000000000000000000000000000000000000600052601260045260246000fd5b6000610d1a82610828565b9150610d2583610828565b925082610d3557610d34610ce0565b5b828204905092915050565b600069ffffffffffffffffffff82169050919050565b610d5f81610d40565b8114610d6a57600080fd5b50565b600081519050610d7c81610d56565b92915050565b6000819050919050565b610d9581610d82565b8114610da057600080fd5b50565b600081519050610db281610d8c565b92915050565b600080600080600060a08688031215610dd457610dd361085c565b5b6000610de288828901610d6d565b9550506020610df388828901610da3565b9450506040610e0488828901610aeb565b9350506060610e1588828901610aeb565b9250506080610e2688828901610d6d565b9150509295509295909350565b6000610e3e82610d82565b9150610e4983610d82565b9250827f7fffffffffffffffffffffffffffffffffffffffffffffffffffffffffffffff0482116000841360008413161615610e8857610e87610a66565b5b817f80000000000000000000000000000000000000000000000000000000000000000583126000841260008413161615610ec557610ec4610a66565b5b827f80000000000000000000000000000000000000000000000000000000000000000582126000841360008412161615610f0257610f01610a66565b5b827f7fffffffffffffffffffffffffffffffffffffffffffffffffffffffffffffff0582126000841260008412161615610f3f57610f3e610a66565b5b82820290509291505056fea264697066735822122073da095cb9878a0ff4b5096e9288a5aa3c8a31b84574c7480146695bfaf3175a64736f6c63430008080033",
  "devdoc": {
    "author": "Author Name",
    "details": "This implements pricefeed library",
    "kind": "dev",
    "methods": {},
    "title": "A contract for crowd funding",
    "version": 1
  },
  "userdoc": {
    "kind": "user",
    "methods": {},
    "notice": "This means node",
    "version": 1
  },
  "storageLayout": {
    "storage": [
      {
        "astId": 59,
        "contract": "contracts/Fundme.sol:FundMe",
        "label": "addressToAmountFunded",
        "offset": 0,
        "slot": "0",
        "type": "t_mapping(t_address,t_uint256)"
      },
      {
        "astId": 62,
        "contract": "contracts/Fundme.sol:FundMe",
        "label": "funders",
        "offset": 0,
        "slot": "1",
        "type": "t_array(t_address)dyn_storage"
      },
      {
        "astId": 64,
        "contract": "contracts/Fundme.sol:FundMe",
        "label": "i_owner",
        "offset": 0,
        "slot": "2",
        "type": "t_address"
      },
      {
        "astId": 74,
        "contract": "contracts/Fundme.sol:FundMe",
        "label": "pricefeed",
        "offset": 0,
        "slot": "3",
        "type": "t_contract(AggregatorV3Interface)45"
      }
    ],
    "types": {
      "t_address": {
        "encoding": "inplace",
        "label": "address",
        "numberOfBytes": "20"
      },
      "t_array(t_address)dyn_storage": {
        "base": "t_address",
        "encoding": "dynamic_array",
        "label": "address[]",
        "numberOfBytes": "32"
      },
      "t_contract(AggregatorV3Interface)45": {
        "encoding": "inplace",
        "label": "contract AggregatorV3Interface",
        "numberOfBytes": "20"
      },
      "t_mapping(t_address,t_uint256)": {
        "encoding": "mapping",
        "key": "t_address",
        "label": "mapping(address => uint256)",
        "numberOfBytes": "32",
        "value": "t_uint256"
      },
      "t_uint256": {
        "encoding": "inplace",
        "label": "uint256",
        "numberOfBytes": "32"
      }
    }
  }
}